{
  "contractName": "Marketplace",
  "abi": [
    {
      "inputs": [],
      "payable": false,
      "stateMutability": "nonpayable",
      "type": "constructor"
    },
    {
      "anonymous": false,
      "inputs": [
        {
          "indexed": false,
          "internalType": "uint256",
          "name": "id",
          "type": "uint256"
        },
        {
          "indexed": false,
          "internalType": "string",
          "name": "name",
          "type": "string"
        },
        {
          "indexed": false,
          "internalType": "uint256",
          "name": "price",
          "type": "uint256"
        },
        {
          "indexed": false,
          "internalType": "address payable",
          "name": "issuer",
          "type": "address"
        },
        {
          "indexed": false,
          "internalType": "address payable",
          "name": "holder",
          "type": "address"
        },
        {
          "indexed": false,
          "internalType": "bool",
          "name": "purchased",
          "type": "bool"
        }
      ],
      "name": "ProductCreated",
      "type": "event"
    },
    {
      "anonymous": false,
      "inputs": [
        {
          "indexed": false,
          "internalType": "uint256",
          "name": "id",
          "type": "uint256"
        },
        {
          "indexed": false,
          "internalType": "string",
          "name": "name",
          "type": "string"
        },
        {
          "indexed": false,
          "internalType": "uint256",
          "name": "price",
          "type": "uint256"
        },
        {
          "indexed": false,
          "internalType": "address payable",
          "name": "issuer",
          "type": "address"
        },
        {
          "indexed": false,
          "internalType": "address payable",
          "name": "holder",
          "type": "address"
        },
        {
          "indexed": false,
          "internalType": "bool",
          "name": "purchased",
          "type": "bool"
        }
      ],
      "name": "ProductPurchased",
      "type": "event"
    },
    {
      "anonymous": false,
      "inputs": [
        {
          "indexed": false,
          "internalType": "uint256",
          "name": "id",
          "type": "uint256"
        },
        {
          "indexed": false,
          "internalType": "string",
          "name": "name",
          "type": "string"
        },
        {
          "indexed": false,
          "internalType": "uint256",
          "name": "price",
          "type": "uint256"
        },
        {
          "indexed": false,
          "internalType": "address payable",
          "name": "issuer",
          "type": "address"
        },
        {
          "indexed": false,
          "internalType": "address payable",
          "name": "holder",
          "type": "address"
        },
        {
          "indexed": false,
          "internalType": "bool",
          "name": "purchased",
          "type": "bool"
        }
      ],
      "name": "ProductReturned",
      "type": "event"
    },
    {
      "constant": true,
      "inputs": [],
      "name": "maxProductsPerBuyerPerIssuer",
      "outputs": [
        {
          "internalType": "uint256",
          "name": "",
          "type": "uint256"
        }
      ],
      "payable": false,
      "stateMutability": "view",
      "type": "function"
    },
    {
      "constant": true,
      "inputs": [],
      "name": "name",
      "outputs": [
        {
          "internalType": "string",
          "name": "",
          "type": "string"
        }
      ],
      "payable": false,
      "stateMutability": "view",
      "type": "function"
    },
    {
      "constant": true,
      "inputs": [],
      "name": "percentFee",
      "outputs": [
        {
          "internalType": "uint256",
          "name": "",
          "type": "uint256"
        }
      ],
      "payable": false,
      "stateMutability": "view",
      "type": "function"
    },
    {
      "constant": true,
      "inputs": [],
      "name": "productCount",
      "outputs": [
        {
          "internalType": "uint256",
          "name": "",
          "type": "uint256"
        }
      ],
      "payable": false,
      "stateMutability": "view",
      "type": "function"
    },
    {
      "constant": true,
      "inputs": [
        {
          "internalType": "uint256",
          "name": "",
          "type": "uint256"
        }
      ],
      "name": "products",
      "outputs": [
        {
          "internalType": "uint256",
          "name": "id",
          "type": "uint256"
        },
        {
          "internalType": "string",
          "name": "name",
          "type": "string"
        },
        {
          "internalType": "uint256",
          "name": "price",
          "type": "uint256"
        },
        {
          "internalType": "address payable",
          "name": "issuer",
          "type": "address"
        },
        {
          "internalType": "address payable",
          "name": "holder",
          "type": "address"
        },
        {
          "internalType": "bool",
          "name": "purchased",
          "type": "bool"
        }
      ],
      "payable": false,
      "stateMutability": "view",
      "type": "function"
    },
    {
      "constant": true,
      "inputs": [
        {
          "internalType": "address",
          "name": "",
          "type": "address"
        },
        {
          "internalType": "address",
          "name": "",
          "type": "address"
        }
      ],
      "name": "productsPerBuyerPerIssuer",
      "outputs": [
        {
          "internalType": "uint256",
          "name": "",
          "type": "uint256"
        }
      ],
      "payable": false,
      "stateMutability": "view",
      "type": "function"
    },
    {
      "constant": true,
      "inputs": [],
      "name": "supervisor",
      "outputs": [
        {
          "internalType": "address payable",
          "name": "",
          "type": "address"
        }
      ],
      "payable": false,
      "stateMutability": "view",
      "type": "function"
    },
    {
      "constant": false,
      "inputs": [
        {
          "internalType": "string",
          "name": "_name",
          "type": "string"
        },
        {
          "internalType": "uint256",
          "name": "_price",
          "type": "uint256"
        }
      ],
      "name": "createProduct",
      "outputs": [],
      "payable": false,
      "stateMutability": "nonpayable",
      "type": "function"
    },
    {
      "constant": false,
      "inputs": [
        {
          "internalType": "uint256",
          "name": "_id",
          "type": "uint256"
        }
      ],
      "name": "purchaseProduct",
      "outputs": [],
      "payable": true,
      "stateMutability": "payable",
      "type": "function"
    },
    {
      "constant": false,
      "inputs": [
        {
          "internalType": "uint256",
          "name": "_id",
          "type": "uint256"
        }
      ],
      "name": "returnProduct",
      "outputs": [],
      "payable": true,
      "stateMutability": "payable",
      "type": "function"
    }
  ],
  "bytecode": "0x608060405260006001556002805560038055733ceb4eeadfb650f2973c2f943e9fbdfdda15385b600460006101000a81548173ffffffffffffffffffffffffffffffffffffffff021916908373ffffffffffffffffffffffffffffffffffffffff1602179055503480156200007357600080fd5b506040518060400160405280600881526020017f5469636b65746c7900000000000000000000000000000000000000000000000081525060009080519060200190620000c1929190620000c8565b5062000177565b828054600181600116156101000203166002900490600052602060002090601f016020900481019282601f106200010b57805160ff19168380011785556200013c565b828001600101855582156200013c579182015b828111156200013b5782518255916020019190600101906200011e565b5b5090506200014b91906200014f565b5090565b6200017491905b808211156200017057600081600090555060010162000156565b5090565b90565b61181080620001876000396000f3fe6080604052600436106100915760003560e01c8063693fd7e211610059578063693fd7e2146102045780637acc0b20146102895780638c6356c7146103bc578063e0f6ef87146103e7578063e9300c6c1461041257610091565b806306fdde0314610096578063131e407d1461012657806338e76a03146101545780634c1a41151461018257806356e4b68b146101ad575b600080fd5b3480156100a257600080fd5b506100ab6104e4565b6040518080602001828103825283818151815260200191508051906020019080838360005b838110156100eb5780820151818401526020810190506100d0565b50505050905090810190601f1680156101185780820380516001836020036101000a031916815260200191505b509250505060405180910390f35b6101526004803603602081101561013c57600080fd5b8101908080359060200190929190505050610582565b005b6101806004803603602081101561016a57600080fd5b8101908080359060200190929190505050610c2e565b005b34801561018e57600080fd5b5061019761129f565b6040518082815260200191505060405180910390f35b3480156101b957600080fd5b506101c26112a5565b604051808273ffffffffffffffffffffffffffffffffffffffff1673ffffffffffffffffffffffffffffffffffffffff16815260200191505060405180910390f35b34801561021057600080fd5b506102736004803603604081101561022757600080fd5b81019080803573ffffffffffffffffffffffffffffffffffffffff169060200190929190803573ffffffffffffffffffffffffffffffffffffffff1690602001909291905050506112cb565b6040518082815260200191505060405180910390f35b34801561029557600080fd5b506102c2600480360360208110156102ac57600080fd5b81019080803590602001909291905050506112f0565b60405180878152602001806020018681526020018573ffffffffffffffffffffffffffffffffffffffff1673ffffffffffffffffffffffffffffffffffffffff1681526020018473ffffffffffffffffffffffffffffffffffffffff1673ffffffffffffffffffffffffffffffffffffffff16815260200183151515158152602001828103825287818151815260200191508051906020019080838360005b8381101561037c578082015181840152602081019050610361565b50505050905090810190601f1680156103a95780820380516001836020036101000a031916815260200191505b5097505050505050505060405180910390f35b3480156103c857600080fd5b506103d1611411565b6040518082815260200191505060405180910390f35b3480156103f357600080fd5b506103fc611417565b6040518082815260200191505060405180910390f35b34801561041e57600080fd5b506104e26004803603604081101561043557600080fd5b810190808035906020019064010000000081111561045257600080fd5b82018360208201111561046457600080fd5b8035906020019184600183028401116401000000008311171561048657600080fd5b91908080601f016020809104026020016040519081016040528093929190818152602001838380828437600081840152601f19601f8201169050808301925050505050505091929192908035906020019092919050505061141d565b005b60008054600181600116156101000203166002900480601f01602080910402602001604051908101604052809291908181526020018280546001816001161561010002031660029004801561057a5780601f1061054f5761010080835404028352916020019161057a565b820191906000526020600020905b81548152906001019060200180831161055d57829003601f168201915b505050505081565b61058a6116d2565b600560008381526020019081526020016000206040518060c001604052908160008201548152602001600182018054600181600116156101000203166002900480601f01602080910402602001604051908101604052809291908181526020018280546001816001161561010002031660029004801561064b5780601f106106205761010080835404028352916020019161064b565b820191906000526020600020905b81548152906001019060200180831161062e57829003601f168201915b50505050508152602001600282015481526020016003820160009054906101000a900473ffffffffffffffffffffffffffffffffffffffff1673ffffffffffffffffffffffffffffffffffffffff1673ffffffffffffffffffffffffffffffffffffffff1681526020016004820160009054906101000a900473ffffffffffffffffffffffffffffffffffffffff1673ffffffffffffffffffffffffffffffffffffffff1673ffffffffffffffffffffffffffffffffffffffff1681526020016004820160149054906101000a900460ff16151515158152505090506000816080015190506000826000015111801561074a5750600154826000015111155b61075357600080fd5b6000600660008373ffffffffffffffffffffffffffffffffffffffff1673ffffffffffffffffffffffffffffffffffffffff16815260200190815260200160002060003373ffffffffffffffffffffffffffffffffffffffff1673ffffffffffffffffffffffffffffffffffffffff16815260200190815260200160002054116107dc57600080fd5b81604001513410156107ed57600080fd5b8160a001516107fb57600080fd5b3373ffffffffffffffffffffffffffffffffffffffff16826060015173ffffffffffffffffffffffffffffffffffffffff161461083757600080fd5b3373ffffffffffffffffffffffffffffffffffffffff168173ffffffffffffffffffffffffffffffffffffffff16141561087057600080fd5b33826080019073ffffffffffffffffffffffffffffffffffffffff16908173ffffffffffffffffffffffffffffffffffffffff168152505060008260a001901515908115158152505081600560008581526020019081526020016000206000820151816000015560208201518160010190805190602001906108f3929190611736565b506040820151816002015560608201518160030160006101000a81548173ffffffffffffffffffffffffffffffffffffffff021916908373ffffffffffffffffffffffffffffffffffffffff16021790555060808201518160040160006101000a81548173ffffffffffffffffffffffffffffffffffffffff021916908373ffffffffffffffffffffffffffffffffffffffff16021790555060a08201518160040160146101000a81548160ff0219169083151502179055509050508073ffffffffffffffffffffffffffffffffffffffff166108fc349081150290604051600060405180830381858888f193505050501580156109f5573d6000803e3d6000fd5b50600460009054906101000a900473ffffffffffffffffffffffffffffffffffffffff1673ffffffffffffffffffffffffffffffffffffffff166108fc6064600354340281610a4057fe5b049081150290604051600060405180830381858888f19350505050158015610a6c573d6000803e3d6000fd5b50600660008273ffffffffffffffffffffffffffffffffffffffff1673ffffffffffffffffffffffffffffffffffffffff16815260200190815260200160002060003373ffffffffffffffffffffffffffffffffffffffff1673ffffffffffffffffffffffffffffffffffffffff16815260200190815260200160002060008154809291906001900391905055507f7defcd00b11364b8bd63e98af975bde5ec312fd2854a9c496ab0e858e1d7c15660015483602001518460400151338660800151600060405180878152602001806020018681526020018573ffffffffffffffffffffffffffffffffffffffff1673ffffffffffffffffffffffffffffffffffffffff1681526020018473ffffffffffffffffffffffffffffffffffffffff1673ffffffffffffffffffffffffffffffffffffffff16815260200183151515158152602001828103825287818151815260200191508051906020019080838360005b83811015610bea578082015181840152602081019050610bcf565b50505050905090810190601f168015610c175780820380516001836020036101000a031916815260200191505b5097505050505050505060405180910390a1505050565b610c366116d2565b600560008381526020019081526020016000206040518060c001604052908160008201548152602001600182018054600181600116156101000203166002900480601f016020809104026020016040519081016040528092919081815260200182805460018160011615610100020316600290048015610cf75780601f10610ccc57610100808354040283529160200191610cf7565b820191906000526020600020905b815481529060010190602001808311610cda57829003601f168201915b50505050508152602001600282015481526020016003820160009054906101000a900473ffffffffffffffffffffffffffffffffffffffff1673ffffffffffffffffffffffffffffffffffffffff1673ffffffffffffffffffffffffffffffffffffffff1681526020016004820160009054906101000a900473ffffffffffffffffffffffffffffffffffffffff1673ffffffffffffffffffffffffffffffffffffffff1673ffffffffffffffffffffffffffffffffffffffff1681526020016004820160149054906101000a900460ff1615151515815250509050600081606001519050600254600660003373ffffffffffffffffffffffffffffffffffffffff1673ffffffffffffffffffffffffffffffffffffffff16815260200190815260200160002060008373ffffffffffffffffffffffffffffffffffffffff1673ffffffffffffffffffffffffffffffffffffffff1681526020019081526020016000205410610e6657600080fd5b60008260000151118015610e805750600154826000015111155b610e8957600080fd5b8160400151341015610e9a57600080fd5b8160a0015115610ea957600080fd5b3373ffffffffffffffffffffffffffffffffffffffff168173ffffffffffffffffffffffffffffffffffffffff161415610ee257600080fd5b33826080019073ffffffffffffffffffffffffffffffffffffffff16908173ffffffffffffffffffffffffffffffffffffffff168152505060018260a00190151590811515815250508160056000858152602001908152602001600020600082015181600001556020820151816001019080519060200190610f65929190611736565b506040820151816002015560608201518160030160006101000a81548173ffffffffffffffffffffffffffffffffffffffff021916908373ffffffffffffffffffffffffffffffffffffffff16021790555060808201518160040160006101000a81548173ffffffffffffffffffffffffffffffffffffffff021916908373ffffffffffffffffffffffffffffffffffffffff16021790555060a08201518160040160146101000a81548160ff0219169083151502179055509050508073ffffffffffffffffffffffffffffffffffffffff166108fc349081150290604051600060405180830381858888f19350505050158015611067573d6000803e3d6000fd5b50600460009054906101000a900473ffffffffffffffffffffffffffffffffffffffff1673ffffffffffffffffffffffffffffffffffffffff166108fc60646003543402816110b257fe5b049081150290604051600060405180830381858888f193505050501580156110de573d6000803e3d6000fd5b50600660003373ffffffffffffffffffffffffffffffffffffffff1673ffffffffffffffffffffffffffffffffffffffff16815260200190815260200160002060008273ffffffffffffffffffffffffffffffffffffffff1673ffffffffffffffffffffffffffffffffffffffff168152602001908152602001600020600081548092919060010191905055507f64f41258f3d51a589cea8504d1f51403f46583535a3e84e2cbe3f8d50674d00b60015483602001518460400151856060015133600160405180878152602001806020018681526020018573ffffffffffffffffffffffffffffffffffffffff1673ffffffffffffffffffffffffffffffffffffffff1681526020018473ffffffffffffffffffffffffffffffffffffffff1673ffffffffffffffffffffffffffffffffffffffff16815260200183151515158152602001828103825287818151815260200191508051906020019080838360005b8381101561125b578082015181840152602081019050611240565b50505050905090810190601f1680156112885780820380516001836020036101000a031916815260200191505b5097505050505050505060405180910390a1505050565b60035481565b600460009054906101000a900473ffffffffffffffffffffffffffffffffffffffff1681565b6006602052816000526040600020602052806000526040600020600091509150505481565b6005602052806000526040600020600091509050806000015490806001018054600181600116156101000203166002900480601f0160208091040260200160405190810160405280929190818152602001828054600181600116156101000203166002900480156113a25780601f10611377576101008083540402835291602001916113a2565b820191906000526020600020905b81548152906001019060200180831161138557829003601f168201915b5050505050908060020154908060030160009054906101000a900473ffffffffffffffffffffffffffffffffffffffff16908060040160009054906101000a900473ffffffffffffffffffffffffffffffffffffffff16908060040160149054906101000a900460ff16905086565b60025481565b60015481565b600082511161142b57600080fd5b60035460648161143757fe5b0481101561144457600080fd5b6001600081548092919060010191905055506040518060c0016040528060015481526020018381526020018281526020013373ffffffffffffffffffffffffffffffffffffffff1681526020013373ffffffffffffffffffffffffffffffffffffffff168152602001600015158152506005600060015481526020019081526020016000206000820151816000015560208201518160010190805190602001906114ef929190611736565b506040820151816002015560608201518160030160006101000a81548173ffffffffffffffffffffffffffffffffffffffff021916908373ffffffffffffffffffffffffffffffffffffffff16021790555060808201518160040160006101000a81548173ffffffffffffffffffffffffffffffffffffffff021916908373ffffffffffffffffffffffffffffffffffffffff16021790555060a08201518160040160146101000a81548160ff0219169083151502179055509050507f47951da81156240ce3274afcf9d0c03c9c37b44e7edc639ecf6334ab3943fd1960015483833333600060405180878152602001806020018681526020018573ffffffffffffffffffffffffffffffffffffffff1673ffffffffffffffffffffffffffffffffffffffff1681526020018473ffffffffffffffffffffffffffffffffffffffff1673ffffffffffffffffffffffffffffffffffffffff16815260200183151515158152602001828103825287818151815260200191508051906020019080838360005b8381101561168f578082015181840152602081019050611674565b50505050905090810190601f1680156116bc5780820380516001836020036101000a031916815260200191505b5097505050505050505060405180910390a15050565b6040518060c00160405280600081526020016060815260200160008152602001600073ffffffffffffffffffffffffffffffffffffffff168152602001600073ffffffffffffffffffffffffffffffffffffffff1681526020016000151581525090565b828054600181600116156101000203166002900490600052602060002090601f016020900481019282601f1061177757805160ff19168380011785556117a5565b828001600101855582156117a5579182015b828111156117a4578251825591602001919060010190611789565b5b5090506117b291906117b6565b5090565b6117d891905b808211156117d45760008160009055506001016117bc565b5090565b9056fea265627a7a72315820d3ba47d78331dfff5b604e4c58cb2c94ea472033346cb6b99054414f030b84d364736f6c63430005100032",
  "source": "pragma solidity ^0.5.0;\n\ncontract Marketplace {\n\n\tstring public name;\n\tuint public productCount = 0;\n\tuint public maxProductsPerBuyerPerIssuer = 2; \n\tuint public percentFee = 3; // MUST NEVER BE ZERO!!!\n\n\taddress payable public supervisor = 0x3ceB4eEADfb650F2973c2F943E9fBdFdDA15385B;\n\n\tmapping(uint => Product) public products;\n\tmapping(address => mapping(address => uint)) public productsPerBuyerPerIssuer; \n\n\tstruct Product {\n\t\tuint id; // Unique ticket ID\n\t\tstring name; // Location of ticket in venue\n\t\tuint price; // Price in Ether? Wei?\n\t\taddress payable issuer; // Issuer of ticket (e.g., event host, trusted third party)\n\t\taddress payable holder; // Holder of ticket\n\t\tbool purchased;\n\t}\n\n\tevent ProductCreated(\n\t\tuint id,\n\t\tstring name,\n\t\tuint price,\n\t\taddress payable issuer,\n\t\taddress payable holder,\n\t\tbool purchased\n\t);\n\n\tevent ProductPurchased(\n\t\tuint id,\n\t\tstring name,\n\t\tuint price,\n\t\taddress payable issuer,\n\t\taddress payable holder,\n\t\tbool purchased\n\t);\n\n\tevent ProductReturned(\n\t\tuint id,\n\t\tstring name,\n\t\tuint price,\n\t\taddress payable issuer,\n\t\taddress payable holder,\n\t\tbool purchased\n\t);\n\n\tconstructor() public {\n\t\tname = \"Ticketly\";\n\t}\n\n\t// msg.sender is the issuer\n\t// Transaction fee for supervisor: 0 Wei\n\tfunction createProduct(string memory _name, uint _price) public {\n\t\t// Require a valid name\n\t\trequire(bytes(_name).length > 0); \n\t\t// Require a valid price\n\t\trequire(_price >= 1 * 100 / percentFee);\n\t\t// Increment product count\n\t\tproductCount++;\n\t\t// Create product\n\t\tproducts[productCount] = Product(productCount, _name, _price, msg.sender, msg.sender, false);\n\t\t// Trigger an event\n\t\temit ProductCreated(productCount, _name, _price, msg.sender, msg.sender, false);\n\t}\n\n\t// msg.sender is the buyer\n\t// Transaction fee for supervisor: percentFee pct of ticket price\n\tfunction purchaseProduct(uint _id) public payable {\n\t\t// Fetch the product\n\t\tProduct memory _product = products[_id];\n\t\t// Fetch the issuer\n\t\taddress payable _issuer = _product.issuer;\n\t\t// Check if buyer has bought too many tickets\n\t\trequire(productsPerBuyerPerIssuer[msg.sender][_issuer] < maxProductsPerBuyerPerIssuer); \n\t\t// Check if product has valid ID\n\t\trequire(_product.id > 0 && _product.id <= productCount);\n\t\t// Check if value has enough ether attached\n\t\trequire(msg.value >= _product.price);\n\t\t// Require that product has not been purchased\n\t\trequire(!_product.purchased);\n\t\t// Require that buyer is not issuer\n\t\trequire(_issuer != msg.sender); \n\t\t// Transfer holder status to buyer\n\t\t_product.holder = msg.sender; \n\t\t// Mark as purchased\n\t\t_product.purchased = true;\n\t\t// Update the product\n\t\tproducts[_id] = _product; \n\t\t// Pay the issuer with Ether\n\t\taddress(_issuer).transfer(msg.value);\n\t\t// Pay the supervisor with Ether\n\t\taddress(supervisor).transfer(msg.value * percentFee / 100); \n\t\t// Update mapping\n\t\tproductsPerBuyerPerIssuer[msg.sender][_issuer]++; \n\t\t// Trigger event\n\t\temit ProductPurchased(productCount, _product.name, _product.price, _product.issuer, msg.sender, true);\n\t}\n\n\t// msg.sender is the issuer\n\t// Problem: avoid the case where issuer unilaterally pulls tickets? (unless we WANT that to be allowed)\n\t// Problem: avoid the case where issuer refuses to refund, despite previously attested-to terms\n\t// Transaction fee for supervisor: percentFee pct of ticket price\n\tfunction returnProduct(uint _id) public payable {\n\t\t// Fetch the product\n\t\tProduct memory _product = products[_id];\n\t\t// Fetch the holder\n\t\taddress payable _buyer = _product.holder;\n\t\t// Check if product has valid ID\n\t\trequire(_product.id > 0 && _product.id <= productCount);\n\t\t// Check if buyer currently holds ticket\n\t\trequire(productsPerBuyerPerIssuer[_buyer][msg.sender] > 0); \n\t\t// Check if value has enough ether attached\n\t\trequire(msg.value >= _product.price);\n\t\t// Require that product has been purchased\n\t\trequire(_product.purchased);\n\t\t// Require that issuer is valid\n\t\trequire(_product.issuer == msg.sender); \n\t\t// Require that buyer is not issuer\n\t\trequire(_buyer != msg.sender); \n\t\t// Transfer holdership back to issuer\n\t\t_product.holder = msg.sender; \n\t\t// Revert purchased status\n\t\t_product.purchased = false;\n\t\t// Update the product\n\t\tproducts[_id] = _product; \n\t\t// Pay the buyer with Ether\n\t\taddress(_buyer).transfer(msg.value);\n\t\t// Pay the supervisor with Ether\n\t\taddress(supervisor).transfer(msg.value * percentFee / 100); \n\t\t// Update mapping\n\t\tproductsPerBuyerPerIssuer[_buyer][msg.sender]--; \n\t\t// Trigger event\n\t\temit ProductReturned(productCount, _product.name, _product.price, msg.sender, _product.holder, false);\n\t}\n\n}\n",
  "sourcePath": "/Users/openamiguel/Documents/marketplace/src/contracts/Marketplace.sol",
  "compiler": {
    "name": "solc",
    "version": "0.5.16+commit.9c3226ce.Emscripten.clang"
  },
  "schemaVersion": "3.3.3",
  "updatedAt": "2021-01-13T16:15:24.448Z",
  "networkType": "ethereum",
  "devdoc": {
    "methods": {}
  },
  "userdoc": {
    "methods": {}
  }
}